{
  "contractName": "Transportation",
  "abi": [
    {
      "constant": true,
      "inputs": [
        {
          "name": "",
          "type": "uint256"
        }
      ],
      "name": "transports",
      "outputs": [
        {
          "name": "upc",
          "type": "uint256"
        },
        {
          "name": "movement",
          "type": "string"
        },
        {
          "name": "origin",
          "type": "string"
        },
        {
          "name": "destination",
          "type": "string"
        }
      ],
      "payable": false,
      "stateMutability": "view",
      "type": "function",
      "signature": "0x9bae0328"
    },
    {
      "constant": true,
      "inputs": [],
      "name": "transportCount",
      "outputs": [
        {
          "name": "",
          "type": "uint256"
        }
      ],
      "payable": false,
      "stateMutability": "view",
      "type": "function",
      "signature": "0xb13c499f"
    },
    {
      "inputs": [],
      "payable": false,
      "stateMutability": "nonpayable",
      "type": "constructor",
      "signature": "constructor"
    },
    {
      "anonymous": false,
      "inputs": [
        {
          "indexed": false,
          "name": "upc",
          "type": "uint256"
        },
        {
          "indexed": false,
          "name": "movement",
          "type": "string"
        },
        {
          "indexed": false,
          "name": "origin",
          "type": "string"
        },
        {
          "indexed": false,
          "name": "destination",
          "type": "string"
        }
      ],
      "name": "TransportCreated",
      "type": "event",
      "signature": "0x32d0d28bd9a30452e22f97db0d0bbe48cb09601edac2c419f46d3ad4322b9b0c"
    },
    {
      "constant": false,
      "inputs": [
        {
          "name": "_movement",
          "type": "string"
        },
        {
          "name": "_origin",
          "type": "string"
        },
        {
          "name": "_destination",
          "type": "string"
        }
      ],
      "name": "createTransport",
      "outputs": [],
      "payable": false,
      "stateMutability": "nonpayable",
      "type": "function",
      "signature": "0x06644045"
    }
  ],
  "bytecode": "0x60806040526000805534801561001457600080fd5b506100ce6040805190810160405280600a81526020017f4175746f6d6f62696c65000000000000000000000000000000000000000000008152506040805190810160405280600d81526020017f57617368696e67746f6e204443000000000000000000000000000000000000008152506040805190810160405280600f81526020017f4c6f7320416e67656c65732c20434100000000000000000000000000000000008152506100d3640100000000026401000000009004565b610374565b600080546001908101808355604080516080810182528281526020808201898152828401899052606083018890529386528481529190942084518155915180519293610127939085019291909101906102d9565b50604082015180516101439160028401916020909101906102d9565b506060820151805161015f9160038401916020909101906102d9565b509050507f32d0d28bd9a30452e22f97db0d0bbe48cb09601edac2c419f46d3ad4322b9b0c60005484848460405180858152602001806020018060200180602001848103845287818151815260200191508051906020019080838360005b838110156101d55781810151838201526020016101bd565b50505050905090810190601f1680156102025780820380516001836020036101000a031916815260200191505b50848103835286518152865160209182019188019080838360005b8381101561023557818101518382015260200161021d565b50505050905090810190601f1680156102625780820380516001836020036101000a031916815260200191505b50848103825285518152855160209182019187019080838360005b8381101561029557818101518382015260200161027d565b50505050905090810190601f1680156102c25780820380516001836020036101000a031916815260200191505b5097505050505050505060405180910390a1505050565b828054600181600116156101000203166002900490600052602060002090601f016020900481019282601f1061031a57805160ff1916838001178555610347565b82800160010185558215610347579182015b8281111561034757825182559160200191906001019061032c565b50610353929150610357565b5090565b61037191905b80821115610353576000815560010161035d565b90565b61085580620003846000396000f3fe6080604052600436106100565763ffffffff7c010000000000000000000000000000000000000000000000000000000060003504166306644045811461005b5780639bae03281461021e578063b13c499f14610393575b600080fd5b34801561006757600080fd5b5061021c6004803603606081101561007e57600080fd5b81019060208101813564010000000081111561009957600080fd5b8201836020820111156100ab57600080fd5b803590602001918460018302840111640100000000831117156100cd57600080fd5b91908080601f016020809104026020016040519081016040528093929190818152602001838380828437600092019190915250929594936020810193503591505064010000000081111561012057600080fd5b82018360208201111561013257600080fd5b8035906020019184600183028401116401000000008311171561015457600080fd5b91908080601f01602080910402602001604051908101604052809392919081815260200183838082843760009201919091525092959493602081019350359150506401000000008111156101a757600080fd5b8201836020820111156101b957600080fd5b803590602001918460018302840111640100000000831117156101db57600080fd5b91908080601f0160208091040260200160405190810160405280939291908181526020018383808284376000920191909152509295506103ba945050505050565b005b34801561022a57600080fd5b506102486004803603602081101561024157600080fd5b50356105c0565b60405180858152602001806020018060200180602001848103845287818151815260200191508051906020019080838360005b8381101561029357818101518382015260200161027b565b50505050905090810190601f1680156102c05780820380516001836020036101000a031916815260200191505b50848103835286518152865160209182019188019080838360005b838110156102f35781810151838201526020016102db565b50505050905090810190601f1680156103205780820380516001836020036101000a031916815260200191505b50848103825285518152855160209182019187019080838360005b8381101561035357818101518382015260200161033b565b50505050905090810190601f1680156103805780820380516001836020036101000a031916815260200191505b5097505050505050505060405180910390f35b34801561039f57600080fd5b506103a8610788565b60408051918252519081900360200190f35b60008054600190810180835560408051608081018252828152602080820189815282840189905260608301889052938652848152919094208451815591518051929361040e9390850192919091019061078e565b506040820151805161042a91600284019160209091019061078e565b506060820151805161044691600384019160209091019061078e565b509050507f32d0d28bd9a30452e22f97db0d0bbe48cb09601edac2c419f46d3ad4322b9b0c60005484848460405180858152602001806020018060200180602001848103845287818151815260200191508051906020019080838360005b838110156104bc5781810151838201526020016104a4565b50505050905090810190601f1680156104e95780820380516001836020036101000a031916815260200191505b50848103835286518152865160209182019188019080838360005b8381101561051c578181015183820152602001610504565b50505050905090810190601f1680156105495780820380516001836020036101000a031916815260200191505b50848103825285518152855160209182019187019080838360005b8381101561057c578181015183820152602001610564565b50505050905090810190601f1680156105a95780820380516001836020036101000a031916815260200191505b5097505050505050505060405180910390a1505050565b600160208181526000928352604092839020805481840180548651600296821615610100026000190190911695909504601f8101859004850286018501909652858552909491939290919083018282801561065c5780601f106106315761010080835404028352916020019161065c565b820191906000526020600020905b81548152906001019060200180831161063f57829003601f168201915b50505060028085018054604080516020601f60001961010060018716150201909416959095049283018590048502810185019091528181529596959450909250908301828280156106ee5780601f106106c3576101008083540402835291602001916106ee565b820191906000526020600020905b8154815290600101906020018083116106d157829003601f168201915b5050505060038301805460408051602060026001851615610100026000190190941693909304601f810184900484028201840190925281815294959493509083018282801561077e5780601f106107535761010080835404028352916020019161077e565b820191906000526020600020905b81548152906001019060200180831161076157829003601f168201915b5050505050905084565b60005481565b828054600181600116156101000203166002900490600052602060002090601f016020900481019282601f106107cf57805160ff19168380011785556107fc565b828001600101855582156107fc579182015b828111156107fc5782518255916020019190600101906107e1565b5061080892915061080c565b5090565b61082691905b808211156108085760008155600101610812565b9056fea165627a7a7230582038f2d9993d3a0dc0c4fb4e1647019df85af49c83bd76ded5525e60539ca798ba0029",
  "source": "pragma solidity ^0.5.0;\n\ncontract Transportation {\n\n     event TransportCreated(\n        uint upc,\n        string movement,\n        string origin,\n        string destination\n    );\n\n    uint public transportCount = 0;\n\n    struct Transport {\n        uint upc;\n        string movement;\n        string origin;\n        string destination;\n    }\n    \n    mapping(uint => Transport) public transports;\n\n    constructor() public {\n        createTransport(\"Automobile\", \"Washington DC\", \"Los Angeles, CA\");\n      }\n\n    function createTransport(string memory _movement, string memory _origin, string memory _destination) public {\n        transportCount ++;\n        transports[transportCount] = Transport(transportCount, _movement, _origin, _destination);\n        //emit an event, basically a log\n        emit TransportCreated(transportCount, _movement, _origin, _destination);\n    }\n}",
  "sourcePath": "/Users/adrianmohnacs/Developer/TGH/TransportationProtocol/contracts/Transportation.sol",
  "compiler": {
    "name": "solc",
    "version": "0.5.0+commit.1d4f565a.Emscripten.clang"
  },
  "schemaVersion": "3.0.1",
  "updatedAt": "2019-04-05T23:01:16.929Z",
  "devdoc": {
    "methods": {}
  },
  "userdoc": {
    "methods": {}
  }
}